:1000000076C00000B7C00000B5C00000B3C000005B
:10001000B1C00000AFC00000ADC00000ABC0000028
:10002000A9C00000A7C00000A5C000000C944D0BA3
:10003000A1C000009FC000009DC000009BC0000048
:1000400099C0000097C0000095C0000093C0000058
:1000500091C000008FC000008DC000008BC0000068
:1000600089C0000087C0000085C0000083C0000078
:1000700081C00000040309041403540061007500EA
:1000800077006100730073006500720000002E03AA
:1000900056005500450020004300610072007400C6
:1000A00020005200650061006400650072002000BD
:1000B000760031002E0030003000000012010002F6
:1000C000FFFFFF20EB0340200001010200010902B5
:1000D000200001010080FA0904000002FFFFFF0078
:1000E000070583024000FF070504024000FF1124BA
:1000F0001FBECFEFD4E0DEBFCDBF94B784B7877FFC
:1001000084BF88E10FB6F89480936000109260007D
:100110000FBE93FF18C08091AC019091AD01A091EA
:10012000AE01B091AF018A3C9C4AA244BC4D59F447
:100130001092AC011092AD011092AE011092AF017D
:10014000E0E0F0E7099511E0A0E0B1E0E6E6FCE1CF
:1001500002C005900D92A431B107D9F711E0A4E1D6
:10016000B1E001C01D92AC3AB107E1F70E94A80DC1
:100170000C94310E45CF42E361E883E00E94630AAC
:1001800042E360E884E00C94630A0F931F93CF93DB
:10019000DF9300D000D0CDB7DEB78091A4018034CA
:1001A00059F0803CE1F00F900F900F900F90DF918D
:1001B000CF911F910F9108958091E800877F8093E0
:1001C000E8008091A501803409F4C5C0803A09F4A3
:1001D000A4C0803209F49AC00E94A30AE4CF80919F
:1001E000E800877F8093E8008091A501803209F4C0
:1001F000A2C0803589F78091000190910101A09102
:100200000201B091030188279927A078BB708093E1
:10021000000190930101A0930201B093030180912A
:10022000000190910101A0910201B0910301806F42
:100230009E6FAF678093000190930101A09302012C
:10024000B09303018091000190910101A0910201FE
:10025000B0910301BE7F8093000190930101A093B0
:100260000201B09303011092A0016091000170910E
:10027000010180910201909103018B019C010F5FAC
:100280001F4F2F4F3F4F0093000110930101209308
:1002900002013093030164D046988091A00199B186
:1002A000E82FF0E0EC5EFE4F9083E82FEF5FE093E5
:1002B000A00193B1F0E0EC5EFE4F90838E5F8093DF
:1002C000A001469A803288F280910001909101014C
:1002D000A0910201B0910301B1608093000190935D
:1002E0000101A0930201B09303016091000170919C
:1002F0000101809102019091030132D060E270E02F
:1003000084E191E071D70E94A30A4DCF8091A601AC
:100310009091A701892B09F05FCF8FEF9FEFDC0150
:100320008093040190930501A0930601B093070107
:100330000E94A30A38CF8FEE9EEBADEABEED898313
:100340009A83AB83BC8364E070E0CE010196C6D78C
:100350000E94A30A28CF0E94A30A0E94860D23CFE1
:100360000F931F934FEF4AB944B96BB9072F182F5A
:10037000292F3327006805B9429A8B019C01E7E1D8
:100380003695279517950795EA95D1F707711127A7
:10039000222733270BB9DC01CB01FFE0B695A795E7
:1003A00097958795FA95D1F78C019D01006805B95D
:1003B00085B942984BB91AB845B914B81F910F9135
:1003C0000895CF92DF92EF92FF920F931F93FC015B
:1003D000442309F470C0DB018FEF50C0C12ED22E30
:1003E000E32EFF246894C7F8C5B8429A68017901E2
:1003F00057E1F694E794D794C7945A95D1F797E1CB
:10040000C922DD24EE24FF24CBB87FE03695279562
:10041000179507957A95D1F7680179016894C7F81F
:10042000C5B805B942988BB91AB885B914B84698B9
:10043000C080D180E280F380970186010F5F1F4F5B
:100440002F4F3F4F2F773327CC24DD2490E8E9222C
:100450009BE0F9220C291D292E293F2900831183B5
:100460002283338399B19C9393B111969C931197F6
:100470001296469A9A2F961B9417E8F400811181E0
:100480002281338168017901E894D7F8EE24FF24B2
:100490008AB984B90BB9CD28CE28CF2809F49ECFCC
:1004A000012F122F232F33270F77112722273327CE
:1004B00005B9429AB7CF1F910F91FF90EF90DF904F
:1004C000CF900895CF92DF92EF92FF920F931F93F8
:1004D000FC01442309F476C0DB018FEF56C0C12E26
:1004E000D22EE32EFF246894C7F8C5B8429A68015B
:1004F000790177E1F694E794D794C7947A95D1F788
:1005000097E1C922DD24EE24FF24CBB89FE0369585
:100510002795179507959A95D1F768017901689401
:10052000C7F8C5B805B942988BB91AB885B914B8D7
:100530009C919BB911969C91119795B912968AB985
:1005400084B998B19F7698B9C080D180E280F38059
:10055000970186010F5F1F4F2F4F3F4F2F77332794
:10056000CC24DD2490E8E9229BE0F9220C291D2906
:100570002E293F29008311832283338398B1906908
:1005800098B99A2F961B9417E8F400811181228163
:10059000338168017901E894D7F8EE24FF248AB901
:1005A00084B90BB9CD28CE28CF2809F498CF012FD4
:1005B000122F232F33270F7711272227332705B92F
:1005C000429AB1CF8FEF8BB91AB885B914B81F9181
:1005D0000F91FF90EF90DF90CF900895CF92DF9230
:1005E000EF92FF920F931F93FC01442309F46BC019
:1005F000DB018FEF4BC0C12ED22EE32EFF24689477
:10060000C7F8C5B8429A6801790197E1F694E79472
:10061000D794C7949A95D1F797E1C922DD24EE24A7
:10062000FF24CBB85FE036952795179507955A9527
:10063000D1F7680179016894C7F8C5B805B942983F
:100640008BB91AB885B914B84698C080D180E280B9
:10065000F380970186010F5F1F4F2F4F3F4F2F777A
:100660003327CC24DD2490E8E9229BE0F9220C29F1
:100670001D292E293F29008311832283338399B1B9
:100680009D93469A9A2F961B9417E8F40081118146
:100690002281338168017901E894D7F8EE24FF24A0
:1006A0008AB984B90BB9CD28CE28CF2809F4A3CFB5
:1006B000012F122F232F33270F77112722273327BC
:1006C00005B9429ABCCF1F910F91FF90EF90DF9038
:1006D000CF900895CF92DF92EF92FF920F931F93E6
:1006E000FC01442309F46CC0DB018FEF4CC0C12E28
:1006F000D22EE32EFF246894C7F8C5B8429A680149
:10070000790157E1F694E794D794C7945A95D1F7B5
:1007100097E1C922DD24EE24FF24CBB87FE0369593
:100720002795179507957A95D1F76801790168940F
:10073000C7F8C5B805B942988BB91AB885B914B8C5
:100740009D919BB98AB94798C080D180E280F3809F
:10075000970186010F5F1F4F2F4F3F4F2F77332792
:10076000CC24DD2490E8E9229BE0F9220C291D2904
:100770002E293F290083118322833383479A9A2F9E
:10078000961B9417E8F4008111812281338168015E
:100790007901E894D7F8EE24FF248AB984B90BB91B
:1007A000CD28CE28CF2809F4A2CF012F122F232F36
:1007B00033270F7711272227332705B9429ABBCF5A
:1007C0008FEF8BB91AB81F910F91FF90EF90DF90C8
:1007D000CF900895CF92DF92EF92FF920F931F93E5
:1007E000FC01442309F46BC0DB018FEF4BC0C12E29
:1007F000D22EE32EFF246894C7F8C5B8429A680148
:10080000790177E1F694E794D794C7947A95D1F774
:1008100097E1C922DD24EE24FF24CBB89FE0369572
:100820002795179507959A95D1F7680179016894EE
:10083000C7F8C5B805B942988BB91AB885B914B8C4
:100840004698C080D180E280F380970186010F5FD7
:100850001F4F2F4F3F4F2F773327CC24DD2490E8B5
:10086000E9229BE0F9220C291D292E293F2900832A
:1008700011832283338393B19D93469A9A2F961BBB
:100880009417E8F400811181228133816801790194
:10089000E894D7F8EE24FF248AB984B90BB9CD289F
:1008A000CE28CF2809F4A3CF012F122F232F3327CF
:1008B0000F7711272227332705B9429ABCCF1F9102
:1008C0000F91FF90EF90DF90CF900895CF92DF923D
:1008D000EF92FF920F931F93FC01442309F46CC025
:1008E000DB018FEF4CC0C12ED22EE32EFF24689483
:1008F000C7F8C5B8429A6801790197E1F694E79480
:10090000D794C7949A95D1F797E1C922DD24EE24B4
:10091000FF24CBB85FE036952795179507955A9534
:10092000D1F7680179016894C7F8C5B805B942984C
:100930008BB91AB885B914B89D9195B98AB94498FC
:10094000C080D180E280F380970186010F5F1F4F46
:100950002F4F3F4F2F773327CC24DD2490E8E92217
:100960009BE0F9220C291D292E293F2900831183A0
:1009700022833383449A9A2F961B9417E8F40081BC
:1009800011812281338168017901E894D7F8EE243E
:10099000FF248AB984B90BB9CD28CE28CF2809F411
:1009A000A2CF012F122F232F33270F7711272227B2
:1009B000332705B9429ABBCF8FEF85B914B81F9181
:1009C0000F91FF90EF90DF90CF900895CF92DF923C
:1009D000EF92FF920F931F93CF93DF9300D0CDB789
:1009E000DEB78091560190915701A0915801B091C6
:1009F00059010097A105B10509F048C08091360161
:100A0000813009F4BFC008F0B3C082E692E0909351
:100A10005B0180935A01E0913701F0E0EE0FFF1F78
:100A2000EE0FFF1FE85FFE4F60913E0170913F01A6
:100A300080914001909141019695879577956795B2
:100A40000081118122813381602B712B822B932BAA
:100A50008F7760935C0170935D0180935E0190934A
:100A60005F017EDC8091560190915701A091580161
:100A7000B09159010196A11DB11D8093560190932B
:100A80005701A0935801B093590113C00197A105D4
:100A9000B105D1F060915C0170915D0180915E01C2
:100AA00090915F0180689B605BDC10923501109231
:100AB00034010F900F90DF91CF911F910F91FF9014
:100AC000EF90DF90CF900895C0904201D090430105
:100AD000E0904401F090450180E4C816D104E1049F
:100AE000F10408F443C000E410E080E4C82ED12CE7
:100AF000E12CF12C1A8219820CC080910401909192
:100B00000501A0910601B0910701892B8A2B8B2B3F
:100B100081F6AE014F5F5F4FB80180E691E004D3EC
:100B2000853059F3E0915A01F0915B014C2D60E65C
:100B300071E08CE591E0099580914201909143012B
:100B4000A0914401B09145018C199D09AE09BF09DE
:100B50008093420190934301A0934401B0934501D7
:100B6000892B8A2B8B2B09F495CFA3CF8601C2CF7B
:100B7000823009F04ACF86E694E090935B0180933F
:100B80005A0149CF8AE693E090935B0180935A0122
:100B900042CFCF92DF92EF92FF920F931F93CF93AA
:100BA000DF9300D0CDB7DEB7809156019091570109
:100BB000A0915801B09159010097A105B10509F024
:100BC00048C080913601813009F4C5C008F0B9C031
:100BD00081EE91E090935B0180935A01E09137019F
:100BE000F0E0EE0FFF1FEE0FFF1FE85FFE4F60917A
:100BF0003E0170913F018091400190914101969595
:100C00008795779567950081118122813381602BCB
:100C1000712B822B932B8F7760935C0170935D0116
:100C200080935E0190935F019BDB809156019091D0
:100C30005701A0915801B09159010196A11DB11D14
:100C40008093560190935701A0935801B093590196
:100C500018C00197A105B105F9F060915C01709190
:100C60005D0180915E0190915F0180689B6078DBFF
:100C70008091E8008E778093E80010923501109201
:100C800034010F900F90DF91CF911F910F91FF9042
:100C9000EF90DF90CF900895C0904201D090430133
:100CA000E0904401F090450180E4C816D104E104CD
:100CB000F10408F443C000E410E040E430E4C32E43
:100CC000D12CE12CF12CE0915A01F0915B0160E60E
:100CD00071E08CE591E009951A8219820CC080912F
:100CE000040190910501A0910601B0910701892BA3
:100CF0008A2B8B2B31F6AE014F5F5F4FB80180E638
:100D000091E0B2D1853059F3809142019091430135
:100D1000A0914401B09145018C199D09AE09BF090C
:100D20008093420190934301A0934401B093450105
:100D3000892B8A2B8B2B09F490CFA3CF4C2D8601C6
:100D4000C2CF823009F044CF8AEE93E090935B01EA
:100D500080935A0143CF8EEE92E090935B01809393
:100D60005A013CCF8F929F92AF92BF92CF92DF9267
:100D7000EF92FF920F931F93CF93DF9300D0CDB7E5
:100D8000DEB71A8219820DC080910401909105018D
:100D9000A0910601B0910701892B8A2B8B2B09F0BA
:100DA00096C0AE014F5F5F4F60E270E086E391E076
:100DB000BBD1853049F360913E0170913F01809134
:100DC00040019091410146D78B019C016091420105
:100DD0007091430180914401909145013BD74B01B3
:100DE0005C016093420170934301809344019093AE
:100DF000450160913A0170913B0180913C019091D5
:100E00003D0128D76B017C0160933A0170933B014F
:100E100080933C0190933D016091460170914701A0
:100E2000809148019091490115D7609346017093D4
:100E30004701809348019093490160914A01709164
:100E40004B0180914C0190914D0104D760934A0170
:100E500070934B0180934C0190934D0160914E0132
:100E600070914F018091500190915101F3D66093A0
:100E70004E0170934F018093500190935101609106
:100E80005201709153018091540190915501E2D625
:100E900060935201709353018093540190935501D4
:100EA000332700933E0110933F012093400130937C
:100EB0004101809136018330C8F080E18093EA00DF
:100EC0001092EA008091EB0080628093EB000F901B
:100ED0000F90DF91CF911F910F91FF90EF90DF90D6
:100EE000CF90BF90AF909F908F90089580913701E1
:100EF000833018F782E0C816D104E104F104E8F663
:100F000089288A288B2819F38FEFC81AD80AD0921B
:100F10003501C0923401109256011092570110927F
:100F200058011092590182E0C816D10411F031DE47
:100F3000CECF4CDDCCCF2091A301243009F0089511
:100F40008091040190910501A0910601B0910701E3
:100F5000892B8A2B8B2B99F72093E9008091E8004D
:100F600082FF0CC08091340190913501009709F502
:100F7000F9DE8091E8008B778093E80083E080932E
:100F8000E9008091E80080FFDACF8091E80085FFDA
:100F90001FC08091340190913501019711F180912A
:100FA000E80085FDCCCF8091E8008E778093E80043
:100FB0000895029759F080E18093EA001092EA00C8
:100FC0008091EB0080628093EB00D3CFFFDCD1CF28
:100FD0008091E8008E778093E800D7D28823C9F209
:100FE0000895D7DDDCCF292F33272230310539F1A1
:100FF00023303105A9F02130310549F020E030E0FF
:1010000080E090E0FA0191838083C901089522E194
:1010100030E08CEB90E0FA0191838083C901089560
:10102000992781309105A1F082309105B9F0892B83
:1010300029F7E4E7F0E0249130E0CF01E3CF20E2AC
:1010400030E08EEC90E0FA0191838083C90108952D
:10105000E8E7F0E0249130E0CF01D4CFEEE8F0E013
:10106000249130E0CF01CECFBF92CF92DF92EF92AA
:10107000FF920F931F93CF93DF938C01EB017A01C3
:1010800084D2B82E81111CC0E114F10469F1F7017A
:1010900020813181C21BD30BF801E20FF31F20978F
:1010A00079F0C12CD12C8091E80085FF2BC0819173
:1010B0008093F1008FEFC81AD80ACC15DD0599F797
:1010C0008B2DDF91CF911F910F91FF90EF90DF90CB
:1010D000CF90BF9008958091E8008E778093E800CC
:1010E000EFD453D281111EC0209751F39091E800A4
:1010F00095FFF1CFF80181918F018093F100219745
:10110000A9F7DECF8091E8008E778093E800D8D4ED
:10111000F701808191818C0D9D1D9183808325E055
:10112000B22ECECFB82ECCCFBF92CF92DF92EF921D
:10113000FF920F931F93CF93DF938C01EB017A0102
:1011400024D2B82E81111CC0E114F10469F1F70119
:1011500020813181C21BD30BF801E20FF31F2097CE
:1011600079F0C12CD12C8091E80085FF2BC08091B3
:10117000F10081938FEFC81AD80ACC15DD0599F7D5
:101180008B2DDF91CF911F910F91FF90EF90DF900A
:10119000CF90BF9008958091E8008B778093E8000E
:1011A0008FD4F3D181111EC0209751F39091E800A4
:1011B00095FFF1CF8091F100F80181938F01219784
:1011C000A9F7DECF8091E8008B778093E80078D490
:1011D000F701808191818C0D9D1D9183808345E075
:1011E000B42ECECFB82ECCCF2091AA013091AB0136
:1011F0002617370758F06115710509F067C020916F
:10120000E8002E772093E80020E030E060E0211530
:10121000310539F5662309F44DC04091A3014423FB
:1012200009F456C0453009F44FC04091E80043FD31
:1012300051C04091E80042FD3DC04091E80040FFB0
:10124000ECCF4091F20050E061E04032510509F0EE
:1012500060E04091E8004E774093E80021153105A9
:10126000C9F24091A301442399F1453069F14091BD
:10127000E80043FD2FC04091E80042FD1BC04091B3
:10128000E80040FFEECF4091F20050E040325105BF
:10129000D8F6FC0103C040325105B1F28191809330
:1012A000F100CF01215031094F5F5F4F211531050A
:1012B00091F7CACF8091E80082FD0EC08091A30112
:1012C000882331F08530B1F783E008959B019ECFEC
:1012D00082E0089581E0089580E00895FB01319750
:1012E000E80FF91F2091AA013091AB0126173707AB
:1012F00058F06115710509F066C08091E8008E779D
:101300008093E80020E030E090E02115310539F5C8
:10131000992309F44CC08091A301882309F455C096
:10132000853009F44EC08091E80083FD50C0809163
:10133000E80082FD3CC08091E80080FFECCF409146
:10134000F20050E091E04032510509F090E08091C8
:10135000E8008E778093E80021153105C9F280916D
:10136000A301882391F1853061F18091E80083FD2C
:101370002EC08091E80082FD1AC08091E80080FFB5
:10138000EECF4091F20050E04032510520F0DACF2C
:1013900040325105B9F280818093F100319721509C
:1013A00031094F5F5F4F2115310591F7CBCF809108
:1013B000E80082FD0EC08091A301882331F08530C2
:1013C000B1F783E008959B019FCF82E0089581E00B
:1013D000089580E008952091AA013091AB0126176D
:1013E000370758F06115710509F065C02091E800D4
:1013F0002E772093E80020E030E0FC0140E021154A
:10140000310531F5442309F44AC08091A3018823B2
:1014100009F453C0853009F44CC08091E80083FD85
:101420004EC08091E80082FD3AC08091E80080FFC4
:10143000ECCF8091F20090E041E0809709F040E02D
:101440008091E8008E778093E80021153105D1F274
:101450008091A301882389F1853059F18091E800BA
:1014600083FD2DC08091E80082FD19C08091E800C5
:1014700080FFEECF8091F20090E08032910520F065
:10148000DBCF80329105C1F244914093F100319657
:101490002150310901962115310599F7CDCF809161
:1014A000E80082FD0EC08091A301882331F08530D1
:1014B000B1F783E008959B01A0CF82E0089581E019
:1014C000089580E00895853098F58093E900982F7D
:1014D000242F762F50E021FF19C03091EB003E7F82
:1014E0003093EB003091ED003D7F3093ED00309173
:1014F000EB0031603093EB007093EC002093ED0033
:101500005093F0002091EE0027FF1BC09F5F9530A5
:1015100079F09093E900891781F07091EC002091A7
:10152000ED005091F00021FDD8CF9F5F953089F7F5
:101530008F708093E90081E00895242F762F50E08A
:10154000CACF80E008958091A40187FD09C08091F1
:10155000E80080FD0EC08091A3018111F8CF0895AD
:101560008091E80082FD0BC08091A3018111F8CF2A
:1015700008958091E8008E778093E8000895809127
:10158000E8008B778093E80008952091E400309183
:10159000E50045E68091EC0080FF1AC08091E800EC
:1015A00080FD1AC08091A3018823C1F08530C1F06D
:1015B0008091EB0085FD16C08091E4009091E500DC
:1015C0002817390739F341509C0121F784E0089529
:1015D0008091E80082FFE6CF80E0089582E00895E0
:1015E00083E0089581E0089552D054D0E0EEF0E019
:1015F000808181608083E8EDF0E080818F77808357
:1016000019BCE3E6F0E08081816080831092A20142
:1016100008953DD03FD08091D8008F778093D80037
:101620008091D80080688093D8008091D8008F7D09
:101630008093D80084E089BD86E089BD09B400FEAE
:10164000FDCF1092A3011092A10142E260E080E080
:101650003ADF8091E1008E7F8093E1008091E2008B
:1016600081608093E2008091E20088608093E200D4
:101670008091E0008E7F8093E0000895E3E6F0E043
:1016800080818E7F808381E08093A201C2CF1092FF
:10169000E20008951092E10008951F920F920FB694
:1016A0000F9211242F933F934F935F936F937F93E8
:1016B0008F939F93AF93BF93EF93FF938091E1003C
:1016C00080FF04C08091E20080FD66C08091E1004F
:1016D00084FF2BC08091E20084FF27C084E089BD95
:1016E00086E089BD09B400FEFDCF8091D8008F7DD2
:1016F0008093D8008091E1008F7E8093E1008091FB
:10170000E2008F7E8093E2008091E200816080930E
:10171000E2008091A101811153C08091E30087FF15
:1017200053C084E08093A301CAD18091E10083FF7C
:1017300022C08091E20083FF1EC08091E100877F7C
:101740008093E10082E08093A3011092A101809137
:10175000E1008E7F8093E1008091E2008E7F809394
:10176000E2008091E20080618093E20042E260E06A
:1017700080E0A9DEA4D1FF91EF91BF91AF919F913D
:101780008F917F916F915F914F913F912F910F902A
:101790000FBE0F901F9018958091E2008E7F80936E
:1017A000E2008091E20080618093E2008091D800A5
:1017B00080628093D80019BC1092A30180D186CF9B
:1017C00084E08093A301B0CF81E0ACCF1F93CF938F
:1017D000DF93CDB7DEB7AC970FB6F894DEBF0FBE80
:1017E000CDBF8091F1008093A4018091F10080939E
:1017F000A5018091F1008093A6018091F100809372
:10180000A7018091F1008093A8018091F10080935D
:10181000A9018091F1008093AA018091F100809349
:10182000AB010E94C5008091E80083FF11C0809148
:10183000A4012091A501253009F45EC008F12830EB
:1018400009F4E2C0293009F4C5C0263009F478C093
:101850008091E80083FF0AC08091E800877F809331
:10186000E8008091EB0080628093EB00AC960FB6AD
:10187000F894DEBF0FBECDBFDF91CF911F910895C9
:10188000213021F008F481C0233011F7882301F3BF
:101890008230F1F68091A601811125C08091A801C6
:1018A0009091A9018F709927009791F28093E90098
:1018B0003091EB0030FF17C0233009F4F8C090914D
:1018C000EB0090619093EB0021E030E001C0220F2B
:1018D0008A95EAF72093EA001092EA008091EB00E3
:1018E00088608093EB001092E9008091E800877F88
:1018F0008093E80028DEACCF8111AACF8091A601A9
:101900009091A7018F779927182F9091E3009078F5
:10191000982B9093E3008091E800877F8093E80004
:1019200012DE8091E80080FFFCCF8091E3008068A8
:101930008093E30011117DC082E08093A30188CFE2
:101940008058823008F084CF8091A6019091A70141
:101950008C3D23E0920709F46EC0AE01455D5F4FF8
:101960006091A80140DB009709F472CF2091E80054
:10197000277F2093E800BC018BA59CA52CDD8091DE
:10198000E8008B778093E80063CF803809F44FC07C
:10199000823809F05DCF8091A8019091A9018F70E4
:1019A00099278093E9009091EB0095FB992790F996
:1019B0001092E9008091E800877F8093E80090937F
:1019C000F1001092F1008091E8008E778093E8009A
:1019D000BADD3ECF81113CCF8091A601823008F064
:1019E00037CF9091E800977F9093E8008093A10112
:1019F000AADD8091A101882309F451C084E080937D
:101A0000A3010E94BB0024CF803809F021CF809130
:101A1000E800877F8093E8008091A1018093F10026
:101A20008091E8008E778093E8008DDD11CF90E003
:101A3000C1CF83E082CF83E08A838AE289835FB764
:101A4000F894DE01139620E03EE041E207C090E00A
:101A5000C7968D939D932F5F243181F0E32FF0E0A3
:101A600040935700849120FF03C082958F703F5FA1
:101A70008F708A3060F790E0C096EBCF5FBF8091A7
:101A8000E800877F8093E8006AE270E0CE0101966B
:101A9000ABDB8091E8008B778093E800D9CE809112
:101AA000E30087FF0AC084E08093A301AACF80915E
:101AB000EB0080628093EB0016CF81E0F5CF0895B4
:101AC000CF938091A3018823A1F08091E9008F70CA
:101AD0009091EC0090FD0FC090E0C92FC82B1092A0
:101AE000E9009091E80093FD0FC08C2F8F708093D8
:101AF000E900CF91089590E8C92FC82B1092E90012
:101B00009091E80093FFF1CF61DEEFCF6DDDF894A7
:101B100085E591E6A1E5B0E00197A109B109E1F7FA
:101B20008AEC9CEAA2E4BCED8093AC019093AD01F9
:101B3000A093AE01B093AF012CE088E190E00FB626
:101B4000F894A895809360000FBE20936000FFCFAB
:101B500084B7877F84BF88E10FB6F89480936000D4
:101B6000109260000FBE80E090E020E80FB6F8947D
:101B700020936100809361000FBE62D07FDD60E042
:101B800070E080E89BE00E94B001789400E118E0EA
:101B9000D4E0C3E095DFC0900401D0900501E0904F
:101BA0000601F0900701C7D9CD28CE28CF2891F3A0
:101BB00088B1806D88B9429860E070E080E89BE071
:101BC0000E94B00110923501109234010093EA0096
:101BD0001092EA001093EA001092EA00D093E90014
:101BE0008091EB0080618093EB008091EB00886036
:101BF0008093EB00C093E9008091EB0080618093BB
:101C0000EB008091EB0088608093EB008091EE0008
:101C1000837069F08091E80084608093E80080918F
:101C2000E80082FDFCCF8091EE00837099F710925E
:101C30000401109205011092060110920701AACF2B
:101C40008FEF8BB91AB885B914B882EF88B984EFD1
:101C500087B90895692796276927782787277827DE
:061C60000895F894FFCF87
:101C66000000800BFFFFFFFF000080090000800AD4
:041C760000008003E7
:00000001FF
